{
  "address": "0x5FbDB2315678afecb367f032d93F642f64180aa3",
  "abi": [
    {
      "anonymous": false,
      "inputs": [
        {
          "indexed": false,
          "internalType": "address",
          "name": "addr",
          "type": "address"
        },
        {
          "indexed": false,
          "internalType": "uint256",
          "name": "amount",
          "type": "uint256"
        }
      ],
      "name": "TransferETH",
      "type": "event"
    },
    {
      "inputs": [
        {
          "internalType": "address",
          "name": "_token",
          "type": "address"
        },
        {
          "internalType": "address[]",
          "name": "_addr",
          "type": "address[]"
        },
        {
          "internalType": "uint256[]",
          "name": "_num",
          "type": "uint256[]"
        }
      ],
      "name": "transferERC20",
      "outputs": [],
      "stateMutability": "nonpayable",
      "type": "function"
    },
    {
      "inputs": [
        {
          "internalType": "address[]",
          "name": "_addr",
          "type": "address[]"
        },
        {
          "internalType": "uint256[]",
          "name": "_num",
          "type": "uint256[]"
        }
      ],
      "name": "transferETH",
      "outputs": [],
      "stateMutability": "payable",
      "type": "function"
    }
  ],
  "transactionHash": "0x0ef047fd7658f05d3c82468a58110e1ea295169fd4598fcb8233b17842e1af90",
  "args": [],
  "numDeployments": 1,
  "solcInputHash": "be1a2de89c62b1b373f5e694112ab2d5",
  "bytecode": "0x6080604052348015600f57600080fd5b50610b068061001f6000396000f3fe6080604052600436106100295760003560e01c8063a11fde371461002e578063fa558b711461004a575b600080fd5b6100486004803603810190610043919061052a565b610073565b005b34801561005657600080fd5b50610071600480360381019061006c9190610609565b61021c565b005b8181905084849050146100bb576040517f08c379a00000000000000000000000000000000000000000000000000000000081526004016100b2906106fb565b60405180910390fd5b60006100c7838361041b565b90503481111561010c576040517f08c379a000000000000000000000000000000000000000000000000000000000815260040161010390610767565b60405180910390fd5b60005b8585905081101561021457600086868381811061012f5761012e610787565b5b905060200201602081019061014491906107b6565b73ffffffffffffffffffffffffffffffffffffffff1685858481811061016d5761016c610787565b5b9050602002013560405161018090610814565b60006040518083038185875af1925050503d80600081146101bd576040519150601f19603f3d011682016040523d82523d6000602084013e6101c2565b606091505b5050905080610206576040517f08c379a00000000000000000000000000000000000000000000000000000000081526004016101fd90610875565b60405180910390fd5b50808060010191505061010f565b505050505050565b818190508484905014610264576040517f08c379a000000000000000000000000000000000000000000000000000000000815260040161025b906106fb565b60405180910390fd5b60008590506000610275848461041b565b9050808273ffffffffffffffffffffffffffffffffffffffff1663dd62ed3e33306040518363ffffffff1660e01b81526004016102b39291906108a4565b602060405180830381865afa1580156102d0573d6000803e3d6000fd5b505050506040513d601f19601f820116820180604052508101906102f49190610903565b1015610335576040517f08c379a000000000000000000000000000000000000000000000000000000000815260040161032c906109a2565b60405180910390fd5b60005b86869050811015610411578273ffffffffffffffffffffffffffffffffffffffff166323b872dd3389898581811061037357610372610787565b5b905060200201602081019061038891906107b6565b88888681811061039b5761039a610787565b5b905060200201356040518463ffffffff1660e01b81526004016103c0939291906109d1565b6020604051808303816000875af11580156103df573d6000803e3d6000fd5b505050506040513d601f19601f820116820180604052508101906104039190610a40565b508080600101915050610338565b5050505050505050565b6000805b8383905081101561045e5783838281811061043d5761043c610787565b5b905060200201358261044f9190610a9c565b9150808060010191505061041f565b5092915050565b600080fd5b600080fd5b600080fd5b600080fd5b600080fd5b60008083601f8401126104945761049361046f565b5b8235905067ffffffffffffffff8111156104b1576104b0610474565b5b6020830191508360208202830111156104cd576104cc610479565b5b9250929050565b60008083601f8401126104ea576104e961046f565b5b8235905067ffffffffffffffff81111561050757610506610474565b5b60208301915083602082028301111561052357610522610479565b5b9250929050565b6000806000806040858703121561054457610543610465565b5b600085013567ffffffffffffffff8111156105625761056161046a565b5b61056e8782880161047e565b9450945050602085013567ffffffffffffffff8111156105915761059061046a565b5b61059d878288016104d4565b925092505092959194509250565b600073ffffffffffffffffffffffffffffffffffffffff82169050919050565b60006105d6826105ab565b9050919050565b6105e6816105cb565b81146105f157600080fd5b50565b600081359050610603816105dd565b92915050565b60008060008060006060868803121561062557610624610465565b5b6000610633888289016105f4565b955050602086013567ffffffffffffffff8111156106545761065361046a565b5b6106608882890161047e565b9450945050604086013567ffffffffffffffff8111156106835761068261046a565b5b61068f888289016104d4565b92509250509295509295909350565b600082825260208201905092915050565b7f6c656e67746820646964206e6f74206d61746368000000000000000000000000600082015250565b60006106e560148361069e565b91506106f0826106af565b602082019050919050565b60006020820190508181036000830152610714816106d8565b9050919050565b7f73756d206f66207472616e7366657220646964206e6f7420617070726f766500600082015250565b6000610751601f8361069e565b915061075c8261071b565b602082019050919050565b6000602082019050818103600083015261078081610744565b9050919050565b7f4e487b7100000000000000000000000000000000000000000000000000000000600052603260045260246000fd5b6000602082840312156107cc576107cb610465565b5b60006107da848285016105f4565b91505092915050565b600081905092915050565b50565b60006107fe6000836107e3565b9150610809826107ee565b600082019050919050565b600061081f826107f1565b9150819050919050565b7f7472616e73666572455448206661696c65640000000000000000000000000000600082015250565b600061085f60128361069e565b915061086a82610829565b602082019050919050565b6000602082019050818103600083015261088e81610852565b9050919050565b61089e816105cb565b82525050565b60006040820190506108b96000830185610895565b6108c66020830184610895565b9392505050565b6000819050919050565b6108e0816108cd565b81146108eb57600080fd5b50565b6000815190506108fd816108d7565b92915050565b60006020828403121561091957610918610465565b5b6000610927848285016108ee565b91505092915050565b7f73756d206f66207472616e73666572206d69736d61746368207468652062616c60008201527f616e6365206f6620617070726f76656400000000000000000000000000000000602082015250565b600061098c60308361069e565b915061099782610930565b604082019050919050565b600060208201905081810360008301526109bb8161097f565b9050919050565b6109cb816108cd565b82525050565b60006060820190506109e66000830186610895565b6109f36020830185610895565b610a0060408301846109c2565b949350505050565b60008115159050919050565b610a1d81610a08565b8114610a2857600080fd5b50565b600081519050610a3a81610a14565b92915050565b600060208284031215610a5657610a55610465565b5b6000610a6484828501610a2b565b91505092915050565b7f4e487b7100000000000000000000000000000000000000000000000000000000600052601160045260246000fd5b6000610aa7826108cd565b9150610ab2836108cd565b9250828201905080821115610aca57610ac9610a6d565b5b9291505056fea26469706673582212206566e0a8dbfb03cb6210b2d05aee06f94dcda8e753fb263ca2ea2b3b809d94b964736f6c634300081c0033",
  "devdoc": {
    "kind": "dev",
    "methods": {},
    "version": 1
  },
  "userdoc": {
    "kind": "user",
    "methods": {},
    "version": 1
  },
  "storageLayout": {
    "storage": [],
    "types": null
  }
}