{
  "address": "0xe7f1725E7734CE288F8367e1Bb143E90bb3F0512",
  "abi": [
    {
      "inputs": [],
      "stateMutability": "nonpayable",
      "type": "constructor"
    },
    {
      "inputs": [],
      "name": "InvalidShortString",
      "type": "error"
    },
    {
      "inputs": [
        {
          "internalType": "string",
          "name": "str",
          "type": "string"
        }
      ],
      "name": "StringTooLong",
      "type": "error"
    },
    {
      "anonymous": false,
      "inputs": [],
      "name": "EIP712DomainChanged",
      "type": "event"
    },
    {
      "anonymous": false,
      "inputs": [
        {
          "indexed": true,
          "internalType": "address",
          "name": "signer",
          "type": "address"
        },
        {
          "indexed": true,
          "internalType": "address",
          "name": "spender",
          "type": "address"
        },
        {
          "indexed": false,
          "internalType": "uint256",
          "name": "num",
          "type": "uint256"
        }
      ],
      "name": "PermitStored",
      "type": "event"
    },
    {
      "inputs": [],
      "name": "eip712Domain",
      "outputs": [
        {
          "internalType": "bytes1",
          "name": "fields",
          "type": "bytes1"
        },
        {
          "internalType": "string",
          "name": "name",
          "type": "string"
        },
        {
          "internalType": "string",
          "name": "version",
          "type": "string"
        },
        {
          "internalType": "uint256",
          "name": "chainId",
          "type": "uint256"
        },
        {
          "internalType": "address",
          "name": "verifyingContract",
          "type": "address"
        },
        {
          "internalType": "bytes32",
          "name": "salt",
          "type": "bytes32"
        },
        {
          "internalType": "uint256[]",
          "name": "extensions",
          "type": "uint256[]"
        }
      ],
      "stateMutability": "view",
      "type": "function"
    },
    {
      "inputs": [
        {
          "internalType": "uint256",
          "name": "_num",
          "type": "uint256"
        },
        {
          "internalType": "bytes",
          "name": "_signature",
          "type": "bytes"
        },
        {
          "internalType": "address",
          "name": "_spender",
          "type": "address"
        }
      ],
      "name": "permitStore",
      "outputs": [],
      "stateMutability": "nonpayable",
      "type": "function"
    },
    {
      "inputs": [],
      "name": "retrieve",
      "outputs": [
        {
          "internalType": "uint256",
          "name": "",
          "type": "uint256"
        }
      ],
      "stateMutability": "view",
      "type": "function"
    }
  ],
  "transactionHash": "0x1a6e93e333685827389145189689b4924dad536ee2b75c41b4ec89282f0358cf",
  "args": [],
  "numDeployments": 1,
  "solcInputHash": "5c762e57147a7da8d99c0c345ab7dc36",
  "bytecode": "0x61016060405234801561001157600080fd5b506040518060400160405280600d81526020017f45495037313253746f72616765000000000000000000000000000000000000008152506040518060400160405280600181526020017f310000000000000000000000000000000000000000000000000000000000000081525061009260008361016e60201b90919060201c565b61012081815250506100ae60018261016e60201b90919060201c565b6101408181525050818051906020012060e08181525050808051906020012061010081815250504660a081815250506100eb6101be60201b60201c565b608081815250503073ffffffffffffffffffffffffffffffffffffffff1660c08173ffffffffffffffffffffffffffffffffffffffff1681525050505033600460006101000a81548173ffffffffffffffffffffffffffffffffffffffff021916908373ffffffffffffffffffffffffffffffffffffffff1602179055506107a7565b6000602083511015610190576101898361021960201b60201c565b90506101b8565b826101a08361028160201b60201c565b60000190816101af91906104db565b5060ff60001b90505b92915050565b60007f8b73c3c69bb8fe3d512ecc4cf759cc79239f7b179b0ffacaa9a75d522b39400f60e0516101005146306040516020016101fe959493929190610616565b60405160208183030381529060405280519060200120905090565b600080829050601f8151111561026657826040517f305a27a900000000000000000000000000000000000000000000000000000000815260040161025d91906106ee565b60405180910390fd5b80518161027290610740565b60001c1760001b915050919050565b6000819050919050565b600081519050919050565b7f4e487b7100000000000000000000000000000000000000000000000000000000600052604160045260246000fd5b7f4e487b7100000000000000000000000000000000000000000000000000000000600052602260045260246000fd5b6000600282049050600182168061030c57607f821691505b60208210810361031f5761031e6102c5565b5b50919050565b60008190508160005260206000209050919050565b60006020601f8301049050919050565b600082821b905092915050565b6000600883026103877fffffffffffffffffffffffffffffffffffffffffffffffffffffffffffffffff8261034a565b610391868361034a565b95508019841693508086168417925050509392505050565b6000819050919050565b6000819050919050565b60006103d86103d36103ce846103a9565b6103b3565b6103a9565b9050919050565b6000819050919050565b6103f2836103bd565b6104066103fe826103df565b848454610357565b825550505050565b600090565b61041b61040e565b6104268184846103e9565b505050565b5b8181101561044a5761043f600082610413565b60018101905061042c565b5050565b601f82111561048f5761046081610325565b6104698461033a565b81016020851015610478578190505b61048c6104848561033a565b83018261042b565b50505b505050565b600082821c905092915050565b60006104b260001984600802610494565b1980831691505092915050565b60006104cb83836104a1565b9150826002028217905092915050565b6104e48261028b565b67ffffffffffffffff8111156104fd576104fc610296565b5b61050782546102f4565b61051282828561044e565b600060209050601f8311600181146105455760008415610533578287015190505b61053d85826104bf565b8655506105a5565b601f19841661055386610325565b60005b8281101561057b57848901518255600182019150602085019450602081019050610556565b868310156105985784890151610594601f8916826104a1565b8355505b6001600288020188555050505b505050505050565b6000819050919050565b6105c0816105ad565b82525050565b6105cf816103a9565b82525050565b600073ffffffffffffffffffffffffffffffffffffffff82169050919050565b6000610600826105d5565b9050919050565b610610816105f5565b82525050565b600060a08201905061062b60008301886105b7565b61063860208301876105b7565b61064560408301866105b7565b61065260608301856105c6565b61065f6080830184610607565b9695505050505050565b600082825260208201905092915050565b60005b8381101561069857808201518184015260208101905061067d565b60008484015250505050565b6000601f19601f8301169050919050565b60006106c08261028b565b6106ca8185610669565b93506106da81856020860161067a565b6106e3816106a4565b840191505092915050565b6000602082019050818103600083015261070881846106b5565b905092915050565b600081519050919050565b6000819050602082019050919050565b600061073782516105ad565b80915050919050565b600061074b82610710565b826107558461071b565b90506107608161072b565b925060208210156107a05761079b7fffffffffffffffffffffffffffffffffffffffffffffffffffffffffffffffff8360200360080261034a565b831692505b5050919050565b60805160a05160c05160e05161010051610120516101405161112e6108016000396000610266015260006102320152600061077b0152600061075a015260006104160152600061046c01526000610495015261112e6000f3fe608060405234801561001057600080fd5b50600436106100415760003560e01c80632e64cec1146100465780633d1fa0c21461006457806384b0196e14610080575b600080fd5b61004e6100a4565b60405161005b9190610916565b60405180910390f35b61007e60048036038101906100799190610b15565b6100ae565b005b61008861021f565b60405161009b9796959493929190610d24565b60405180910390f35b6000600354905090565b60006101037fd0424b76ec7a3227309117de6d952e26508aa80cc81ccac30dc95ed1419924cd83866040516020016100e893929190610da8565b60405160208183030381529060405280519060200120610321565b9050600061011a848361033b90919063ffffffff16565b9050600460009054906101000a900473ffffffffffffffffffffffffffffffffffffffff1673ffffffffffffffffffffffffffffffffffffffff168173ffffffffffffffffffffffffffffffffffffffff16146101ac576040517f08c379a00000000000000000000000000000000000000000000000000000000081526004016101a390610e2b565b60405180910390fd5b846003819055508273ffffffffffffffffffffffffffffffffffffffff168173ffffffffffffffffffffffffffffffffffffffff167f597b17d78b3b9cdc508763b6a87ddf85f3f00e92b7ea085d1cf20326fa57965e876040516102109190610916565b60405180910390a35050505050565b60006060806000806000606061025f60007f000000000000000000000000000000000000000000000000000000000000000061036290919063ffffffff16565b61029360017f000000000000000000000000000000000000000000000000000000000000000061036290919063ffffffff16565b46306000801b600067ffffffffffffffff8111156102b4576102b361098c565b5b6040519080825280602002602001820160405280156102e25781602001602082028036833780820191505090505b507f0f00000000000000000000000000000000000000000000000000000000000000959493929190965096509650965096509650965090919293949596565b600061033461032e610412565b836104c9565b9050919050565b600080600061034a858561050a565b915091506103578161055b565b819250505092915050565b606060ff60001b831461037f57610378836106c1565b905061040c565b81805461038b90610e7a565b80601f01602080910402602001604051908101604052809291908181526020018280546103b790610e7a565b80156104045780601f106103d957610100808354040283529160200191610404565b820191906000526020600020905b8154815290600101906020018083116103e757829003601f168201915b505050505090505b92915050565b60007f000000000000000000000000000000000000000000000000000000000000000073ffffffffffffffffffffffffffffffffffffffff163073ffffffffffffffffffffffffffffffffffffffff1614801561048e57507f000000000000000000000000000000000000000000000000000000000000000046145b156104bb577f000000000000000000000000000000000000000000000000000000000000000090506104c6565b6104c3610735565b90505b90565b60006040517f190100000000000000000000000000000000000000000000000000000000000081528360028201528260228201526042812091505092915050565b600080604183510361054b5760008060006020860151925060408601519150606086015160001a905061053f878285856107cb565b94509450505050610554565b60006002915091505b9250929050565b6000600481111561056f5761056e610eab565b5b81600481111561058257610581610eab565b5b03156106be576001600481111561059c5761059b610eab565b5b8160048111156105af576105ae610eab565b5b036105ef576040517f08c379a00000000000000000000000000000000000000000000000000000000081526004016105e690610f26565b60405180910390fd5b6002600481111561060357610602610eab565b5b81600481111561061657610615610eab565b5b03610656576040517f08c379a000000000000000000000000000000000000000000000000000000000815260040161064d90610f92565b60405180910390fd5b6003600481111561066a57610669610eab565b5b81600481111561067d5761067c610eab565b5b036106bd576040517f08c379a00000000000000000000000000000000000000000000000000000000081526004016106b490611024565b60405180910390fd5b5b50565b606060006106ce836108ad565b90506000602067ffffffffffffffff8111156106ed576106ec61098c565b5b6040519080825280601f01601f19166020018201604052801561071f5781602001600182028036833780820191505090505b5090508181528360208201528092505050919050565b60007f8b73c3c69bb8fe3d512ecc4cf759cc79239f7b179b0ffacaa9a75d522b39400f7f00000000000000000000000000000000000000000000000000000000000000007f000000000000000000000000000000000000000000000000000000000000000046306040516020016107b0959493929190611044565b60405160208183030381529060405280519060200120905090565b6000807f7fffffffffffffffffffffffffffffff5d576e7357a4501ddfe92f46681b20a08360001c11156108065760006003915091506108a4565b60006001878787876040516000815260200160405260405161082b94939291906110b3565b6020604051602081039080840390855afa15801561084d573d6000803e3d6000fd5b505050602060405103519050600073ffffffffffffffffffffffffffffffffffffffff168173ffffffffffffffffffffffffffffffffffffffff160361089b576000600192509250506108a4565b80600092509250505b94509492505050565b60008060ff8360001c169050601f8111156108f4576040517fb3512b0c00000000000000000000000000000000000000000000000000000000815260040160405180910390fd5b80915050919050565b6000819050919050565b610910816108fd565b82525050565b600060208201905061092b6000830184610907565b92915050565b6000604051905090565b600080fd5b600080fd5b61094e816108fd565b811461095957600080fd5b50565b60008135905061096b81610945565b92915050565b600080fd5b600080fd5b6000601f19601f8301169050919050565b7f4e487b7100000000000000000000000000000000000000000000000000000000600052604160045260246000fd5b6109c48261097b565b810181811067ffffffffffffffff821117156109e3576109e261098c565b5b80604052505050565b60006109f6610931565b9050610a0282826109bb565b919050565b600067ffffffffffffffff821115610a2257610a2161098c565b5b610a2b8261097b565b9050602081019050919050565b82818337600083830152505050565b6000610a5a610a5584610a07565b6109ec565b905082815260208101848484011115610a7657610a75610976565b5b610a81848285610a38565b509392505050565b600082601f830112610a9e57610a9d610971565b5b8135610aae848260208601610a47565b91505092915050565b600073ffffffffffffffffffffffffffffffffffffffff82169050919050565b6000610ae282610ab7565b9050919050565b610af281610ad7565b8114610afd57600080fd5b50565b600081359050610b0f81610ae9565b92915050565b600080600060608486031215610b2e57610b2d61093b565b5b6000610b3c8682870161095c565b935050602084013567ffffffffffffffff811115610b5d57610b5c610940565b5b610b6986828701610a89565b9250506040610b7a86828701610b00565b9150509250925092565b60007fff0000000000000000000000000000000000000000000000000000000000000082169050919050565b610bb981610b84565b82525050565b600081519050919050565b600082825260208201905092915050565b60005b83811015610bf9578082015181840152602081019050610bde565b60008484015250505050565b6000610c1082610bbf565b610c1a8185610bca565b9350610c2a818560208601610bdb565b610c338161097b565b840191505092915050565b610c4781610ad7565b82525050565b6000819050919050565b610c6081610c4d565b82525050565b600081519050919050565b600082825260208201905092915050565b6000819050602082019050919050565b610c9b816108fd565b82525050565b6000610cad8383610c92565b60208301905092915050565b6000602082019050919050565b6000610cd182610c66565b610cdb8185610c71565b9350610ce683610c82565b8060005b83811015610d17578151610cfe8882610ca1565b9750610d0983610cb9565b925050600181019050610cea565b5085935050505092915050565b600060e082019050610d39600083018a610bb0565b8181036020830152610d4b8189610c05565b90508181036040830152610d5f8188610c05565b9050610d6e6060830187610907565b610d7b6080830186610c3e565b610d8860a0830185610c57565b81810360c0830152610d9a8184610cc6565b905098975050505050505050565b6000606082019050610dbd6000830186610c57565b610dca6020830185610c3e565b610dd76040830184610907565b949350505050565b7f45495037313253746f726167653a20496e76616c6964207369676e6174757265600082015250565b6000610e15602083610bca565b9150610e2082610ddf565b602082019050919050565b60006020820190508181036000830152610e4481610e08565b9050919050565b7f4e487b7100000000000000000000000000000000000000000000000000000000600052602260045260246000fd5b60006002820490506001821680610e9257607f821691505b602082108103610ea557610ea4610e4b565b5b50919050565b7f4e487b7100000000000000000000000000000000000000000000000000000000600052602160045260246000fd5b7f45434453413a20696e76616c6964207369676e61747572650000000000000000600082015250565b6000610f10601883610bca565b9150610f1b82610eda565b602082019050919050565b60006020820190508181036000830152610f3f81610f03565b9050919050565b7f45434453413a20696e76616c6964207369676e6174757265206c656e67746800600082015250565b6000610f7c601f83610bca565b9150610f8782610f46565b602082019050919050565b60006020820190508181036000830152610fab81610f6f565b9050919050565b7f45434453413a20696e76616c6964207369676e6174757265202773272076616c60008201527f7565000000000000000000000000000000000000000000000000000000000000602082015250565b600061100e602283610bca565b915061101982610fb2565b604082019050919050565b6000602082019050818103600083015261103d81611001565b9050919050565b600060a0820190506110596000830188610c57565b6110666020830187610c57565b6110736040830186610c57565b6110806060830185610907565b61108d6080830184610c3e565b9695505050505050565b600060ff82169050919050565b6110ad81611097565b82525050565b60006080820190506110c86000830187610c57565b6110d560208301866110a4565b6110e26040830185610c57565b6110ef6060830184610c57565b9594505050505056fea264697066735822122005c8e83d7e3cd78bd93c8fcfb6d962b8027429911eea79c775fa0e8df2d63ac364736f6c634300081c0033",
  "devdoc": {
    "events": {
      "EIP712DomainChanged()": {
        "details": "MAY be emitted to signal that the domain could have changed."
      }
    },
    "kind": "dev",
    "methods": {
      "eip712Domain()": {
        "details": "See {EIP-5267}. _Available since v4.9._"
      }
    },
    "version": 1
  },
  "userdoc": {
    "kind": "user",
    "methods": {},
    "version": 1
  },
  "storageLayout": {
    "storage": [
      {
        "astId": 978,
        "contract": "contracts/18_EIP712.sol:EIP712Storage",
        "label": "_nameFallback",
        "offset": 0,
        "slot": "0",
        "type": "t_string_storage"
      },
      {
        "astId": 980,
        "contract": "contracts/18_EIP712.sol:EIP712Storage",
        "label": "_versionFallback",
        "offset": 0,
        "slot": "1",
        "type": "t_string_storage"
      },
      {
        "astId": 2136,
        "contract": "contracts/18_EIP712.sol:EIP712Storage",
        "label": "DOMAIN_SEPARATOR",
        "offset": 0,
        "slot": "2",
        "type": "t_bytes32"
      },
      {
        "astId": 2138,
        "contract": "contracts/18_EIP712.sol:EIP712Storage",
        "label": "number",
        "offset": 0,
        "slot": "3",
        "type": "t_uint256"
      },
      {
        "astId": 2140,
        "contract": "contracts/18_EIP712.sol:EIP712Storage",
        "label": "owner",
        "offset": 0,
        "slot": "4",
        "type": "t_address"
      }
    ],
    "types": {
      "t_address": {
        "encoding": "inplace",
        "label": "address",
        "numberOfBytes": "20"
      },
      "t_bytes32": {
        "encoding": "inplace",
        "label": "bytes32",
        "numberOfBytes": "32"
      },
      "t_string_storage": {
        "encoding": "bytes",
        "label": "string",
        "numberOfBytes": "32"
      },
      "t_uint256": {
        "encoding": "inplace",
        "label": "uint256",
        "numberOfBytes": "32"
      }
    }
  }
}