{
  "address": "0xCf7Ed3AccA5a467e9e704C703E8D87F634fB0Fc9",
  "abi": [
    {
      "inputs": [
        {
          "internalType": "string",
          "name": "_name",
          "type": "string"
        },
        {
          "internalType": "string",
          "name": "_symbol",
          "type": "string"
        },
        {
          "internalType": "address",
          "name": "_signer",
          "type": "address"
        }
      ],
      "stateMutability": "nonpayable",
      "type": "constructor"
    },
    {
      "anonymous": false,
      "inputs": [
        {
          "indexed": true,
          "internalType": "address",
          "name": "owner",
          "type": "address"
        },
        {
          "indexed": true,
          "internalType": "address",
          "name": "approved",
          "type": "address"
        },
        {
          "indexed": true,
          "internalType": "uint256",
          "name": "tokenId",
          "type": "uint256"
        }
      ],
      "name": "Approval",
      "type": "event"
    },
    {
      "anonymous": false,
      "inputs": [
        {
          "indexed": true,
          "internalType": "address",
          "name": "owner",
          "type": "address"
        },
        {
          "indexed": true,
          "internalType": "address",
          "name": "operator",
          "type": "address"
        },
        {
          "indexed": false,
          "internalType": "bool",
          "name": "approved",
          "type": "bool"
        }
      ],
      "name": "ApprovalForAll",
      "type": "event"
    },
    {
      "anonymous": false,
      "inputs": [
        {
          "indexed": true,
          "internalType": "address",
          "name": "from",
          "type": "address"
        },
        {
          "indexed": true,
          "internalType": "address",
          "name": "to",
          "type": "address"
        },
        {
          "indexed": true,
          "internalType": "uint256",
          "name": "tokenId",
          "type": "uint256"
        }
      ],
      "name": "Transfer",
      "type": "event"
    },
    {
      "inputs": [
        {
          "internalType": "address",
          "name": "to",
          "type": "address"
        },
        {
          "internalType": "uint256",
          "name": "tokenId",
          "type": "uint256"
        }
      ],
      "name": "approve",
      "outputs": [],
      "stateMutability": "nonpayable",
      "type": "function"
    },
    {
      "inputs": [
        {
          "internalType": "address",
          "name": "owner",
          "type": "address"
        }
      ],
      "name": "balanceOf",
      "outputs": [
        {
          "internalType": "uint256",
          "name": "",
          "type": "uint256"
        }
      ],
      "stateMutability": "view",
      "type": "function"
    },
    {
      "inputs": [
        {
          "internalType": "uint256",
          "name": "tokenId",
          "type": "uint256"
        }
      ],
      "name": "getApproved",
      "outputs": [
        {
          "internalType": "address",
          "name": "",
          "type": "address"
        }
      ],
      "stateMutability": "view",
      "type": "function"
    },
    {
      "inputs": [
        {
          "internalType": "address",
          "name": "_account",
          "type": "address"
        },
        {
          "internalType": "uint256",
          "name": "_tokenId",
          "type": "uint256"
        }
      ],
      "name": "getMessageHash",
      "outputs": [
        {
          "internalType": "bytes32",
          "name": "",
          "type": "bytes32"
        }
      ],
      "stateMutability": "pure",
      "type": "function"
    },
    {
      "inputs": [
        {
          "internalType": "address",
          "name": "owner",
          "type": "address"
        },
        {
          "internalType": "address",
          "name": "operator",
          "type": "address"
        }
      ],
      "name": "isApprovedForAll",
      "outputs": [
        {
          "internalType": "bool",
          "name": "",
          "type": "bool"
        }
      ],
      "stateMutability": "view",
      "type": "function"
    },
    {
      "inputs": [
        {
          "internalType": "address",
          "name": "_account",
          "type": "address"
        },
        {
          "internalType": "uint256",
          "name": "_tokenId",
          "type": "uint256"
        },
        {
          "internalType": "bytes",
          "name": "_signature",
          "type": "bytes"
        }
      ],
      "name": "mint",
      "outputs": [],
      "stateMutability": "nonpayable",
      "type": "function"
    },
    {
      "inputs": [
        {
          "internalType": "address",
          "name": "",
          "type": "address"
        }
      ],
      "name": "mintedAddress",
      "outputs": [
        {
          "internalType": "bool",
          "name": "",
          "type": "bool"
        }
      ],
      "stateMutability": "view",
      "type": "function"
    },
    {
      "inputs": [],
      "name": "name",
      "outputs": [
        {
          "internalType": "string",
          "name": "",
          "type": "string"
        }
      ],
      "stateMutability": "view",
      "type": "function"
    },
    {
      "inputs": [
        {
          "internalType": "uint256",
          "name": "tokenId",
          "type": "uint256"
        }
      ],
      "name": "ownerOf",
      "outputs": [
        {
          "internalType": "address",
          "name": "",
          "type": "address"
        }
      ],
      "stateMutability": "view",
      "type": "function"
    },
    {
      "inputs": [
        {
          "internalType": "address",
          "name": "from",
          "type": "address"
        },
        {
          "internalType": "address",
          "name": "to",
          "type": "address"
        },
        {
          "internalType": "uint256",
          "name": "tokenId",
          "type": "uint256"
        }
      ],
      "name": "safeTransferFrom",
      "outputs": [],
      "stateMutability": "nonpayable",
      "type": "function"
    },
    {
      "inputs": [
        {
          "internalType": "address",
          "name": "from",
          "type": "address"
        },
        {
          "internalType": "address",
          "name": "to",
          "type": "address"
        },
        {
          "internalType": "uint256",
          "name": "tokenId",
          "type": "uint256"
        },
        {
          "internalType": "bytes",
          "name": "data",
          "type": "bytes"
        }
      ],
      "name": "safeTransferFrom",
      "outputs": [],
      "stateMutability": "nonpayable",
      "type": "function"
    },
    {
      "inputs": [
        {
          "internalType": "address",
          "name": "operator",
          "type": "address"
        },
        {
          "internalType": "bool",
          "name": "approved",
          "type": "bool"
        }
      ],
      "name": "setApprovalForAll",
      "outputs": [],
      "stateMutability": "nonpayable",
      "type": "function"
    },
    {
      "inputs": [],
      "name": "signer",
      "outputs": [
        {
          "internalType": "address",
          "name": "",
          "type": "address"
        }
      ],
      "stateMutability": "view",
      "type": "function"
    },
    {
      "inputs": [
        {
          "internalType": "bytes4",
          "name": "interfaceId",
          "type": "bytes4"
        }
      ],
      "name": "supportsInterface",
      "outputs": [
        {
          "internalType": "bool",
          "name": "",
          "type": "bool"
        }
      ],
      "stateMutability": "view",
      "type": "function"
    },
    {
      "inputs": [],
      "name": "symbol",
      "outputs": [
        {
          "internalType": "string",
          "name": "",
          "type": "string"
        }
      ],
      "stateMutability": "view",
      "type": "function"
    },
    {
      "inputs": [
        {
          "internalType": "uint256",
          "name": "tokenId",
          "type": "uint256"
        }
      ],
      "name": "tokenURI",
      "outputs": [
        {
          "internalType": "string",
          "name": "",
          "type": "string"
        }
      ],
      "stateMutability": "view",
      "type": "function"
    },
    {
      "inputs": [
        {
          "internalType": "address",
          "name": "from",
          "type": "address"
        },
        {
          "internalType": "address",
          "name": "to",
          "type": "address"
        },
        {
          "internalType": "uint256",
          "name": "tokenId",
          "type": "uint256"
        }
      ],
      "name": "transferFrom",
      "outputs": [],
      "stateMutability": "nonpayable",
      "type": "function"
    },
    {
      "inputs": [
        {
          "internalType": "bytes32",
          "name": "_msgHash",
          "type": "bytes32"
        },
        {
          "internalType": "bytes",
          "name": "_signature",
          "type": "bytes"
        }
      ],
      "name": "verifySignature",
      "outputs": [
        {
          "internalType": "bool",
          "name": "",
          "type": "bool"
        }
      ],
      "stateMutability": "view",
      "type": "function"
    }
  ],
  "transactionHash": "0x4dd992072e3bc82e982d042cddcb90160386ba562b8c0c0c087f4b711a82e006",
  "args": [
    "TYY",
    "LJJ",
    "0xf39Fd6e51aad88F6F4ce6aB8827279cffFb92266"
  ],
  "numDeployments": 1,
  "solcInputHash": "a42a0ec0e731470726313b791ed41a46",
  "bytecode": "0x60a060405234801561001057600080fd5b506040516134f43803806134f483398181016040528101906100329190610265565b828281600090816100439190610511565b5080600190816100539190610511565b5050508073ffffffffffffffffffffffffffffffffffffffff1660808173ffffffffffffffffffffffffffffffffffffffff16815250505050506105e3565b6000604051905090565b600080fd5b600080fd5b600080fd5b600080fd5b6000601f19601f8301169050919050565b7f4e487b7100000000000000000000000000000000000000000000000000000000600052604160045260246000fd5b6100f9826100b0565b810181811067ffffffffffffffff82111715610118576101176100c1565b5b80604052505050565b600061012b610092565b905061013782826100f0565b919050565b600067ffffffffffffffff821115610157576101566100c1565b5b610160826100b0565b9050602081019050919050565b60005b8381101561018b578082015181840152602081019050610170565b60008484015250505050565b60006101aa6101a58461013c565b610121565b9050828152602081018484840111156101c6576101c56100ab565b5b6101d184828561016d565b509392505050565b600082601f8301126101ee576101ed6100a6565b5b81516101fe848260208601610197565b91505092915050565b600073ffffffffffffffffffffffffffffffffffffffff82169050919050565b600061023282610207565b9050919050565b61024281610227565b811461024d57600080fd5b50565b60008151905061025f81610239565b92915050565b60008060006060848603121561027e5761027d61009c565b5b600084015167ffffffffffffffff81111561029c5761029b6100a1565b5b6102a8868287016101d9565b935050602084015167ffffffffffffffff8111156102c9576102c86100a1565b5b6102d5868287016101d9565b92505060406102e686828701610250565b9150509250925092565b600081519050919050565b7f4e487b7100000000000000000000000000000000000000000000000000000000600052602260045260246000fd5b6000600282049050600182168061034257607f821691505b602082108103610355576103546102fb565b5b50919050565b60008190508160005260206000209050919050565b60006020601f8301049050919050565b600082821b905092915050565b6000600883026103bd7fffffffffffffffffffffffffffffffffffffffffffffffffffffffffffffffff82610380565b6103c78683610380565b95508019841693508086168417925050509392505050565b6000819050919050565b6000819050919050565b600061040e610409610404846103df565b6103e9565b6103df565b9050919050565b6000819050919050565b610428836103f3565b61043c61043482610415565b84845461038d565b825550505050565b600090565b610451610444565b61045c81848461041f565b505050565b5b8181101561048057610475600082610449565b600181019050610462565b5050565b601f8211156104c5576104968161035b565b61049f84610370565b810160208510156104ae578190505b6104c26104ba85610370565b830182610461565b50505b505050565b600082821c905092915050565b60006104e8600019846008026104ca565b1980831691505092915050565b600061050183836104d7565b9150826002028217905092915050565b61051a826102f0565b67ffffffffffffffff811115610533576105326100c1565b5b61053d825461032a565b610548828285610484565b600060209050601f83116001811461057b5760008415610569578287015190505b61057385826104f5565b8655506105db565b601f1984166105898661035b565b60005b828110156105b15784890151825560018201915060208501945060208101905061058c565b868310156105ce57848901516105ca601f8916826104d7565b8355505b6001600288020188555050505b505050505050565b608051612eef610605600039600081816106a00152610bb80152612eef6000f3fe608060405234801561001057600080fd5b50600436106101165760003560e01c80636352211e116100a2578063a22cb46511610071578063a22cb46514610305578063b88d4fde14610321578063c87b56dd1461033d578063daca6f781461036d578063e985e9c51461039d57610116565b80636352211e1461026b57806370a082311461029b57806394d008ef146102cb57806395d89b41146102e757610116565b8063238ac933116100e9578063238ac933146101b557806323b872dd146101d357806342842e0e146101ef578063512c91df1461020b578063630303c61461023b57610116565b806301ffc9a71461011b57806306fdde031461014b578063081812fc14610169578063095ea7b314610199575b600080fd5b61013560048036038101906101309190611d59565b6103cd565b6040516101429190611da1565b60405180910390f35b6101536104af565b6040516101609190611e4c565b60405180910390f35b610183600480360381019061017e9190611ea4565b610541565b6040516101909190611f12565b60405180910390f35b6101b360048036038101906101ae9190611f59565b610587565b005b6101bd61069e565b6040516101ca9190611f12565b60405180910390f35b6101ed60048036038101906101e89190611f99565b6106c2565b005b61020960048036038101906102049190611f99565b610722565b005b61022560048036038101906102209190611f59565b610742565b6040516102329190612005565b60405180910390f35b61025560048036038101906102509190612020565b610775565b6040516102629190611da1565b60405180910390f35b61028560048036038101906102809190611ea4565b610795565b6040516102929190611f12565b60405180910390f35b6102b560048036038101906102b09190612020565b61081b565b6040516102c2919061205c565b60405180910390f35b6102e560048036038101906102e091906121ac565b6108d2565b005b6102ef610a2c565b6040516102fc9190611e4c565b60405180910390f35b61031f600480360381019061031a9190612247565b610abe565b005b61033b60048036038101906103369190612287565b610ad4565b005b61035760048036038101906103529190611ea4565b610b36565b6040516103649190611e4c565b60405180910390f35b61038760048036038101906103829190612336565b610b9e565b6040516103949190611da1565b60405180910390f35b6103b760048036038101906103b29190612392565b610c0e565b6040516103c49190611da1565b60405180910390f35b60007f80ac58cd000000000000000000000000000000000000000000000000000000007bffffffffffffffffffffffffffffffffffffffffffffffffffffffff1916827bffffffffffffffffffffffffffffffffffffffffffffffffffffffff1916148061049857507f5b5e139f000000000000000000000000000000000000000000000000000000007bffffffffffffffffffffffffffffffffffffffffffffffffffffffff1916827bffffffffffffffffffffffffffffffffffffffffffffffffffffffff1916145b806104a857506104a782610ca2565b5b9050919050565b6060600080546104be90612401565b80601f01602080910402602001604051908101604052809291908181526020018280546104ea90612401565b80156105375780601f1061050c57610100808354040283529160200191610537565b820191906000526020600020905b81548152906001019060200180831161051a57829003601f168201915b5050505050905090565b600061054c82610d0c565b6004600083815260200190815260200160002060009054906101000a900473ffffffffffffffffffffffffffffffffffffffff169050919050565b600061059282610795565b90508073ffffffffffffffffffffffffffffffffffffffff168373ffffffffffffffffffffffffffffffffffffffff1603610602576040517f08c379a00000000000000000000000000000000000000000000000000000000081526004016105f9906124a4565b60405180910390fd5b8073ffffffffffffffffffffffffffffffffffffffff16610621610d57565b73ffffffffffffffffffffffffffffffffffffffff161480610650575061064f8161064a610d57565b610c0e565b5b61068f576040517f08c379a000000000000000000000000000000000000000000000000000000000815260040161068690612536565b60405180910390fd5b6106998383610d5f565b505050565b7f000000000000000000000000000000000000000000000000000000000000000081565b6106d36106cd610d57565b82610e18565b610712576040517f08c379a0000000000000000000000000000000000000000000000000000000008152600401610709906125c8565b60405180910390fd5b61071d838383610ead565b505050565b61073d83838360405180602001604052806000815250610ad4565b505050565b60008282604051602001610757929190612651565b60405160208183030381529060405280519060200120905092915050565b60066020528060005260406000206000915054906101000a900460ff1681565b6000806107a1836111a6565b9050600073ffffffffffffffffffffffffffffffffffffffff168173ffffffffffffffffffffffffffffffffffffffff1603610812576040517f08c379a0000000000000000000000000000000000000000000000000000000008152600401610809906126c9565b60405180910390fd5b80915050919050565b60008073ffffffffffffffffffffffffffffffffffffffff168273ffffffffffffffffffffffffffffffffffffffff160361088b576040517f08c379a00000000000000000000000000000000000000000000000000000000081526004016108829061275b565b60405180910390fd5b600360008373ffffffffffffffffffffffffffffffffffffffff1673ffffffffffffffffffffffffffffffffffffffff168152602001908152602001600020549050919050565b60006108de8484610742565b905060006108eb826111e3565b90506108f78184610b9e565b610936576040517f08c379a000000000000000000000000000000000000000000000000000000000815260040161092d906127c7565b60405180910390fd5b600660008673ffffffffffffffffffffffffffffffffffffffff1673ffffffffffffffffffffffffffffffffffffffff16815260200190815260200160002060009054906101000a900460ff16156109c3576040517f08c379a00000000000000000000000000000000000000000000000000000000081526004016109ba90612833565b60405180910390fd5b6109cd8585611219565b6001600660008773ffffffffffffffffffffffffffffffffffffffff1673ffffffffffffffffffffffffffffffffffffffff16815260200190815260200160002060006101000a81548160ff0219169083151502179055505050505050565b606060018054610a3b90612401565b80601f0160208091040260200160405190810160405280929190818152602001828054610a6790612401565b8015610ab45780601f10610a8957610100808354040283529160200191610ab4565b820191906000526020600020905b815481529060010190602001808311610a9757829003601f168201915b5050505050905090565b610ad0610ac9610d57565b8383611436565b5050565b610ae5610adf610d57565b83610e18565b610b24576040517f08c379a0000000000000000000000000000000000000000000000000000000008152600401610b1b906125c8565b60405180910390fd5b610b30848484846115a2565b50505050565b6060610b4182610d0c565b6000610b4b6115fe565b90506000815111610b6b5760405180602001604052806000815250610b96565b80610b7584611615565b604051602001610b8692919061288f565b6040516020818303038152906040525b915050919050565b600080610bb483856116e390919063ffffffff16565b90507f000000000000000000000000000000000000000000000000000000000000000073ffffffffffffffffffffffffffffffffffffffff168173ffffffffffffffffffffffffffffffffffffffff161491505092915050565b6000600560008473ffffffffffffffffffffffffffffffffffffffff1673ffffffffffffffffffffffffffffffffffffffff16815260200190815260200160002060008373ffffffffffffffffffffffffffffffffffffffff1673ffffffffffffffffffffffffffffffffffffffff16815260200190815260200160002060009054906101000a900460ff16905092915050565b60007f01ffc9a7000000000000000000000000000000000000000000000000000000007bffffffffffffffffffffffffffffffffffffffffffffffffffffffff1916827bffffffffffffffffffffffffffffffffffffffffffffffffffffffff1916149050919050565b610d158161170a565b610d54576040517f08c379a0000000000000000000000000000000000000000000000000000000008152600401610d4b906126c9565b60405180910390fd5b50565b600033905090565b816004600083815260200190815260200160002060006101000a81548173ffffffffffffffffffffffffffffffffffffffff021916908373ffffffffffffffffffffffffffffffffffffffff160217905550808273ffffffffffffffffffffffffffffffffffffffff16610dd283610795565b73ffffffffffffffffffffffffffffffffffffffff167f8c5be1e5ebec7d5bd14f71427d1e84f3dd0314c0f7b2291e5b200ac8c7c3b92560405160405180910390a45050565b600080610e2483610795565b90508073ffffffffffffffffffffffffffffffffffffffff168473ffffffffffffffffffffffffffffffffffffffff161480610e665750610e658185610c0e565b5b80610ea457508373ffffffffffffffffffffffffffffffffffffffff16610e8c84610541565b73ffffffffffffffffffffffffffffffffffffffff16145b91505092915050565b8273ffffffffffffffffffffffffffffffffffffffff16610ecd82610795565b73ffffffffffffffffffffffffffffffffffffffff1614610f23576040517f08c379a0000000000000000000000000000000000000000000000000000000008152600401610f1a90612925565b60405180910390fd5b600073ffffffffffffffffffffffffffffffffffffffff168273ffffffffffffffffffffffffffffffffffffffff1603610f92576040517f08c379a0000000000000000000000000000000000000000000000000000000008152600401610f89906129b7565b60405180910390fd5b610f9f838383600161174b565b8273ffffffffffffffffffffffffffffffffffffffff16610fbf82610795565b73ffffffffffffffffffffffffffffffffffffffff1614611015576040517f08c379a000000000000000000000000000000000000000000000000000000000815260040161100c90612925565b60405180910390fd5b6004600082815260200190815260200160002060006101000a81549073ffffffffffffffffffffffffffffffffffffffff02191690556001600360008573ffffffffffffffffffffffffffffffffffffffff1673ffffffffffffffffffffffffffffffffffffffff168152602001908152602001600020600082825403925050819055506001600360008473ffffffffffffffffffffffffffffffffffffffff1673ffffffffffffffffffffffffffffffffffffffff16815260200190815260200160002060008282540192505081905550816002600083815260200190815260200160002060006101000a81548173ffffffffffffffffffffffffffffffffffffffff021916908373ffffffffffffffffffffffffffffffffffffffff160217905550808273ffffffffffffffffffffffffffffffffffffffff168473ffffffffffffffffffffffffffffffffffffffff167fddf252ad1be2c89b69c2b068fc378daa952ba7f163c4a11628f55a4df523b3ef60405160405180910390a46111a18383836001611751565b505050565b60006002600083815260200190815260200160002060009054906101000a900473ffffffffffffffffffffffffffffffffffffffff169050919050565b60007f19457468657265756d205369676e6564204d6573736167653a0a33320000000060005281601c52603c6000209050919050565b600073ffffffffffffffffffffffffffffffffffffffff168273ffffffffffffffffffffffffffffffffffffffff1603611288576040517f08c379a000000000000000000000000000000000000000000000000000000000815260040161127f90612a23565b60405180910390fd5b6112918161170a565b156112d1576040517f08c379a00000000000000000000000000000000000000000000000000000000081526004016112c890612a8f565b60405180910390fd5b6112df60008383600161174b565b6112e88161170a565b15611328576040517f08c379a000000000000000000000000000000000000000000000000000000000815260040161131f90612a8f565b60405180910390fd5b6001600360008473ffffffffffffffffffffffffffffffffffffffff1673ffffffffffffffffffffffffffffffffffffffff16815260200190815260200160002060008282540192505081905550816002600083815260200190815260200160002060006101000a81548173ffffffffffffffffffffffffffffffffffffffff021916908373ffffffffffffffffffffffffffffffffffffffff160217905550808273ffffffffffffffffffffffffffffffffffffffff16600073ffffffffffffffffffffffffffffffffffffffff167fddf252ad1be2c89b69c2b068fc378daa952ba7f163c4a11628f55a4df523b3ef60405160405180910390a4611432600083836001611751565b5050565b8173ffffffffffffffffffffffffffffffffffffffff168373ffffffffffffffffffffffffffffffffffffffff16036114a4576040517f08c379a000000000000000000000000000000000000000000000000000000000815260040161149b90612afb565b60405180910390fd5b80600560008573ffffffffffffffffffffffffffffffffffffffff1673ffffffffffffffffffffffffffffffffffffffff16815260200190815260200160002060008473ffffffffffffffffffffffffffffffffffffffff1673ffffffffffffffffffffffffffffffffffffffff16815260200190815260200160002060006101000a81548160ff0219169083151502179055508173ffffffffffffffffffffffffffffffffffffffff168373ffffffffffffffffffffffffffffffffffffffff167f17307eab39ab6107e8899845ad3d59bd9653f200f220920489ca2b5937696c31836040516115959190611da1565b60405180910390a3505050565b6115ad848484610ead565b6115b984848484611757565b6115f8576040517f08c379a00000000000000000000000000000000000000000000000000000000081526004016115ef90612b8d565b60405180910390fd5b50505050565b606060405180602001604052806000815250905090565b606060006001611624846118de565b01905060008167ffffffffffffffff81111561164357611642612081565b5b6040519080825280601f01601f1916602001820160405280156116755781602001600182028036833780820191505090505b509050600082602001820190505b6001156116d8578080600190039150507f3031323334353637383961626364656600000000000000000000000000000000600a86061a8153600a85816116cc576116cb612bad565b5b04945060008503611683575b819350505050919050565b60008060006116f28585611a31565b915091506116ff81611a82565b819250505092915050565b60008073ffffffffffffffffffffffffffffffffffffffff1661172c836111a6565b73ffffffffffffffffffffffffffffffffffffffff1614159050919050565b50505050565b50505050565b60006117788473ffffffffffffffffffffffffffffffffffffffff16611be8565b156118d1578373ffffffffffffffffffffffffffffffffffffffff1663150b7a026117a1610d57565b8786866040518563ffffffff1660e01b81526004016117c39493929190612c31565b6020604051808303816000875af19250505080156117ff57506040513d601f19601f820116820180604052508101906117fc9190612c92565b60015b611881573d806000811461182f576040519150601f19603f3d011682016040523d82523d6000602084013e611834565b606091505b506000815103611879576040517f08c379a000000000000000000000000000000000000000000000000000000000815260040161187090612b8d565b60405180910390fd5b805181602001fd5b63150b7a0260e01b7bffffffffffffffffffffffffffffffffffffffffffffffffffffffff1916817bffffffffffffffffffffffffffffffffffffffffffffffffffffffff1916149150506118d6565b600190505b949350505050565b600080600090507a184f03e93ff9f4daa797ed6e38ed64bf6a1f010000000000000000831061193c577a184f03e93ff9f4daa797ed6e38ed64bf6a1f010000000000000000838161193257611931612bad565b5b0492506040810190505b6d04ee2d6d415b85acef81000000008310611979576d04ee2d6d415b85acef8100000000838161196f5761196e612bad565b5b0492506020810190505b662386f26fc1000083106119a857662386f26fc10000838161199e5761199d612bad565b5b0492506010810190505b6305f5e10083106119d1576305f5e10083816119c7576119c6612bad565b5b0492506008810190505b61271083106119f65761271083816119ec576119eb612bad565b5b0492506004810190505b60648310611a195760648381611a0f57611a0e612bad565b5b0492506002810190505b600a8310611a28576001810190505b80915050919050565b6000806041835103611a725760008060006020860151925060408601519150606086015160001a9050611a6687828585611c0b565b94509450505050611a7b565b60006002915091505b9250929050565b60006004811115611a9657611a95612cbf565b5b816004811115611aa957611aa8612cbf565b5b0315611be55760016004811115611ac357611ac2612cbf565b5b816004811115611ad657611ad5612cbf565b5b03611b16576040517f08c379a0000000000000000000000000000000000000000000000000000000008152600401611b0d90612d3a565b60405180910390fd5b60026004811115611b2a57611b29612cbf565b5b816004811115611b3d57611b3c612cbf565b5b03611b7d576040517f08c379a0000000000000000000000000000000000000000000000000000000008152600401611b7490612da6565b60405180910390fd5b60036004811115611b9157611b90612cbf565b5b816004811115611ba457611ba3612cbf565b5b03611be4576040517f08c379a0000000000000000000000000000000000000000000000000000000008152600401611bdb90612e38565b60405180910390fd5b5b50565b6000808273ffffffffffffffffffffffffffffffffffffffff163b119050919050565b6000807f7fffffffffffffffffffffffffffffff5d576e7357a4501ddfe92f46681b20a08360001c1115611c46576000600391509150611ce4565b600060018787878760405160008152602001604052604051611c6b9493929190612e74565b6020604051602081039080840390855afa158015611c8d573d6000803e3d6000fd5b505050602060405103519050600073ffffffffffffffffffffffffffffffffffffffff168173ffffffffffffffffffffffffffffffffffffffff1603611cdb57600060019250925050611ce4565b80600092509250505b94509492505050565b6000604051905090565b600080fd5b600080fd5b60007fffffffff0000000000000000000000000000000000000000000000000000000082169050919050565b611d3681611d01565b8114611d4157600080fd5b50565b600081359050611d5381611d2d565b92915050565b600060208284031215611d6f57611d6e611cf7565b5b6000611d7d84828501611d44565b91505092915050565b60008115159050919050565b611d9b81611d86565b82525050565b6000602082019050611db66000830184611d92565b92915050565b600081519050919050565b600082825260208201905092915050565b60005b83811015611df6578082015181840152602081019050611ddb565b60008484015250505050565b6000601f19601f8301169050919050565b6000611e1e82611dbc565b611e288185611dc7565b9350611e38818560208601611dd8565b611e4181611e02565b840191505092915050565b60006020820190508181036000830152611e668184611e13565b905092915050565b6000819050919050565b611e8181611e6e565b8114611e8c57600080fd5b50565b600081359050611e9e81611e78565b92915050565b600060208284031215611eba57611eb9611cf7565b5b6000611ec884828501611e8f565b91505092915050565b600073ffffffffffffffffffffffffffffffffffffffff82169050919050565b6000611efc82611ed1565b9050919050565b611f0c81611ef1565b82525050565b6000602082019050611f276000830184611f03565b92915050565b611f3681611ef1565b8114611f4157600080fd5b50565b600081359050611f5381611f2d565b92915050565b60008060408385031215611f7057611f6f611cf7565b5b6000611f7e85828601611f44565b9250506020611f8f85828601611e8f565b9150509250929050565b600080600060608486031215611fb257611fb1611cf7565b5b6000611fc086828701611f44565b9350506020611fd186828701611f44565b9250506040611fe286828701611e8f565b9150509250925092565b6000819050919050565b611fff81611fec565b82525050565b600060208201905061201a6000830184611ff6565b92915050565b60006020828403121561203657612035611cf7565b5b600061204484828501611f44565b91505092915050565b61205681611e6e565b82525050565b6000602082019050612071600083018461204d565b92915050565b600080fd5b600080fd5b7f4e487b7100000000000000000000000000000000000000000000000000000000600052604160045260246000fd5b6120b982611e02565b810181811067ffffffffffffffff821117156120d8576120d7612081565b5b80604052505050565b60006120eb611ced565b90506120f782826120b0565b919050565b600067ffffffffffffffff82111561211757612116612081565b5b61212082611e02565b9050602081019050919050565b82818337600083830152505050565b600061214f61214a846120fc565b6120e1565b90508281526020810184848401111561216b5761216a61207c565b5b61217684828561212d565b509392505050565b600082601f83011261219357612192612077565b5b81356121a384826020860161213c565b91505092915050565b6000806000606084860312156121c5576121c4611cf7565b5b60006121d386828701611f44565b93505060206121e486828701611e8f565b925050604084013567ffffffffffffffff81111561220557612204611cfc565b5b6122118682870161217e565b9150509250925092565b61222481611d86565b811461222f57600080fd5b50565b6000813590506122418161221b565b92915050565b6000806040838503121561225e5761225d611cf7565b5b600061226c85828601611f44565b925050602061227d85828601612232565b9150509250929050565b600080600080608085870312156122a1576122a0611cf7565b5b60006122af87828801611f44565b94505060206122c087828801611f44565b93505060406122d187828801611e8f565b925050606085013567ffffffffffffffff8111156122f2576122f1611cfc565b5b6122fe8782880161217e565b91505092959194509250565b61231381611fec565b811461231e57600080fd5b50565b6000813590506123308161230a565b92915050565b6000806040838503121561234d5761234c611cf7565b5b600061235b85828601612321565b925050602083013567ffffffffffffffff81111561237c5761237b611cfc565b5b6123888582860161217e565b9150509250929050565b600080604083850312156123a9576123a8611cf7565b5b60006123b785828601611f44565b92505060206123c885828601611f44565b9150509250929050565b7f4e487b7100000000000000000000000000000000000000000000000000000000600052602260045260246000fd5b6000600282049050600182168061241957607f821691505b60208210810361242c5761242b6123d2565b5b50919050565b7f4552433732313a20617070726f76616c20746f2063757272656e74206f776e6560008201527f7200000000000000000000000000000000000000000000000000000000000000602082015250565b600061248e602183611dc7565b915061249982612432565b604082019050919050565b600060208201905081810360008301526124bd81612481565b9050919050565b7f4552433732313a20617070726f76652063616c6c6572206973206e6f7420746f60008201527f6b656e206f776e6572206f7220617070726f76656420666f7220616c6c000000602082015250565b6000612520603d83611dc7565b915061252b826124c4565b604082019050919050565b6000602082019050818103600083015261254f81612513565b9050919050565b7f4552433732313a2063616c6c6572206973206e6f7420746f6b656e206f776e6560008201527f72206f7220617070726f76656400000000000000000000000000000000000000602082015250565b60006125b2602d83611dc7565b91506125bd82612556565b604082019050919050565b600060208201905081810360008301526125e1816125a5565b9050919050565b60008160601b9050919050565b6000612600826125e8565b9050919050565b6000612612826125f5565b9050919050565b61262a61262582611ef1565b612607565b82525050565b6000819050919050565b61264b61264682611e6e565b612630565b82525050565b600061265d8285612619565b60148201915061266d828461263a565b6020820191508190509392505050565b7f4552433732313a20696e76616c696420746f6b656e2049440000000000000000600082015250565b60006126b3601883611dc7565b91506126be8261267d565b602082019050919050565b600060208201905081810360008301526126e2816126a6565b9050919050565b7f4552433732313a2061646472657373207a65726f206973206e6f74206120766160008201527f6c6964206f776e65720000000000000000000000000000000000000000000000602082015250565b6000612745602983611dc7565b9150612750826126e9565b604082019050919050565b6000602082019050818103600083015261277481612738565b9050919050565b7f496e76616c6964207369676e6174757265000000000000000000000000000000600082015250565b60006127b1601183611dc7565b91506127bc8261277b565b602082019050919050565b600060208201905081810360008301526127e0816127a4565b9050919050565b7f416c7265616479206d696e746564210000000000000000000000000000000000600082015250565b600061281d600f83611dc7565b9150612828826127e7565b602082019050919050565b6000602082019050818103600083015261284c81612810565b9050919050565b600081905092915050565b600061286982611dbc565b6128738185612853565b9350612883818560208601611dd8565b80840191505092915050565b600061289b828561285e565b91506128a7828461285e565b91508190509392505050565b7f4552433732313a207472616e736665722066726f6d20696e636f72726563742060008201527f6f776e6572000000000000000000000000000000000000000000000000000000602082015250565b600061290f602583611dc7565b915061291a826128b3565b604082019050919050565b6000602082019050818103600083015261293e81612902565b9050919050565b7f4552433732313a207472616e7366657220746f20746865207a65726f2061646460008201527f7265737300000000000000000000000000000000000000000000000000000000602082015250565b60006129a1602483611dc7565b91506129ac82612945565b604082019050919050565b600060208201905081810360008301526129d081612994565b9050919050565b7f4552433732313a206d696e7420746f20746865207a65726f2061646472657373600082015250565b6000612a0d602083611dc7565b9150612a18826129d7565b602082019050919050565b60006020820190508181036000830152612a3c81612a00565b9050919050565b7f4552433732313a20746f6b656e20616c7265616479206d696e74656400000000600082015250565b6000612a79601c83611dc7565b9150612a8482612a43565b602082019050919050565b60006020820190508181036000830152612aa881612a6c565b9050919050565b7f4552433732313a20617070726f766520746f2063616c6c657200000000000000600082015250565b6000612ae5601983611dc7565b9150612af082612aaf565b602082019050919050565b60006020820190508181036000830152612b1481612ad8565b9050919050565b7f4552433732313a207472616e7366657220746f206e6f6e20455243373231526560008201527f63656976657220696d706c656d656e7465720000000000000000000000000000602082015250565b6000612b77603283611dc7565b9150612b8282612b1b565b604082019050919050565b60006020820190508181036000830152612ba681612b6a565b9050919050565b7f4e487b7100000000000000000000000000000000000000000000000000000000600052601260045260246000fd5b600081519050919050565b600082825260208201905092915050565b6000612c0382612bdc565b612c0d8185612be7565b9350612c1d818560208601611dd8565b612c2681611e02565b840191505092915050565b6000608082019050612c466000830187611f03565b612c536020830186611f03565b612c60604083018561204d565b8181036060830152612c728184612bf8565b905095945050505050565b600081519050612c8c81611d2d565b92915050565b600060208284031215612ca857612ca7611cf7565b5b6000612cb684828501612c7d565b91505092915050565b7f4e487b7100000000000000000000000000000000000000000000000000000000600052602160045260246000fd5b7f45434453413a20696e76616c6964207369676e61747572650000000000000000600082015250565b6000612d24601883611dc7565b9150612d2f82612cee565b602082019050919050565b60006020820190508181036000830152612d5381612d17565b9050919050565b7f45434453413a20696e76616c6964207369676e6174757265206c656e67746800600082015250565b6000612d90601f83611dc7565b9150612d9b82612d5a565b602082019050919050565b60006020820190508181036000830152612dbf81612d83565b9050919050565b7f45434453413a20696e76616c6964207369676e6174757265202773272076616c60008201527f7565000000000000000000000000000000000000000000000000000000000000602082015250565b6000612e22602283611dc7565b9150612e2d82612dc6565b604082019050919050565b60006020820190508181036000830152612e5181612e15565b9050919050565b600060ff82169050919050565b612e6e81612e58565b82525050565b6000608082019050612e896000830187611ff6565b612e966020830186612e65565b612ea36040830185611ff6565b612eb06060830184611ff6565b9594505050505056fea26469706673582212204e2088ceb9dcfd50115f1cde14ee59972edb717042eb13b4d69fff1b4e584a6b64736f6c634300081c0033",
  "devdoc": {
    "events": {
      "Approval(address,address,uint256)": {
        "details": "Emitted when `owner` enables `approved` to manage the `tokenId` token."
      },
      "ApprovalForAll(address,address,bool)": {
        "details": "Emitted when `owner` enables or disables (`approved`) `operator` to manage all of its assets."
      },
      "Transfer(address,address,uint256)": {
        "details": "Emitted when `tokenId` token is transferred from `from` to `to`."
      }
    },
    "kind": "dev",
    "methods": {
      "approve(address,uint256)": {
        "details": "See {IERC721-approve}."
      },
      "balanceOf(address)": {
        "details": "See {IERC721-balanceOf}."
      },
      "getApproved(uint256)": {
        "details": "See {IERC721-getApproved}."
      },
      "isApprovedForAll(address,address)": {
        "details": "See {IERC721-isApprovedForAll}."
      },
      "name()": {
        "details": "See {IERC721Metadata-name}."
      },
      "ownerOf(uint256)": {
        "details": "See {IERC721-ownerOf}."
      },
      "safeTransferFrom(address,address,uint256)": {
        "details": "See {IERC721-safeTransferFrom}."
      },
      "safeTransferFrom(address,address,uint256,bytes)": {
        "details": "See {IERC721-safeTransferFrom}."
      },
      "setApprovalForAll(address,bool)": {
        "details": "See {IERC721-setApprovalForAll}."
      },
      "supportsInterface(bytes4)": {
        "details": "See {IERC165-supportsInterface}."
      },
      "symbol()": {
        "details": "See {IERC721Metadata-symbol}."
      },
      "tokenURI(uint256)": {
        "details": "See {IERC721Metadata-tokenURI}."
      },
      "transferFrom(address,address,uint256)": {
        "details": "See {IERC721-transferFrom}."
      }
    },
    "version": 1
  },
  "userdoc": {
    "kind": "user",
    "methods": {},
    "version": 1
  },
  "storageLayout": {
    "storage": [
      {
        "astId": 25,
        "contract": "contracts/SignatureNFT.sol:SignatureNFT",
        "label": "_name",
        "offset": 0,
        "slot": "0",
        "type": "t_string_storage"
      },
      {
        "astId": 27,
        "contract": "contracts/SignatureNFT.sol:SignatureNFT",
        "label": "_symbol",
        "offset": 0,
        "slot": "1",
        "type": "t_string_storage"
      },
      {
        "astId": 31,
        "contract": "contracts/SignatureNFT.sol:SignatureNFT",
        "label": "_owners",
        "offset": 0,
        "slot": "2",
        "type": "t_mapping(t_uint256,t_address)"
      },
      {
        "astId": 35,
        "contract": "contracts/SignatureNFT.sol:SignatureNFT",
        "label": "_balances",
        "offset": 0,
        "slot": "3",
        "type": "t_mapping(t_address,t_uint256)"
      },
      {
        "astId": 39,
        "contract": "contracts/SignatureNFT.sol:SignatureNFT",
        "label": "_tokenApprovals",
        "offset": 0,
        "slot": "4",
        "type": "t_mapping(t_uint256,t_address)"
      },
      {
        "astId": 45,
        "contract": "contracts/SignatureNFT.sol:SignatureNFT",
        "label": "_operatorApprovals",
        "offset": 0,
        "slot": "5",
        "type": "t_mapping(t_address,t_mapping(t_address,t_bool))"
      },
      {
        "astId": 3056,
        "contract": "contracts/SignatureNFT.sol:SignatureNFT",
        "label": "mintedAddress",
        "offset": 0,
        "slot": "6",
        "type": "t_mapping(t_address,t_bool)"
      }
    ],
    "types": {
      "t_address": {
        "encoding": "inplace",
        "label": "address",
        "numberOfBytes": "20"
      },
      "t_bool": {
        "encoding": "inplace",
        "label": "bool",
        "numberOfBytes": "1"
      },
      "t_mapping(t_address,t_bool)": {
        "encoding": "mapping",
        "key": "t_address",
        "label": "mapping(address => bool)",
        "numberOfBytes": "32",
        "value": "t_bool"
      },
      "t_mapping(t_address,t_mapping(t_address,t_bool))": {
        "encoding": "mapping",
        "key": "t_address",
        "label": "mapping(address => mapping(address => bool))",
        "numberOfBytes": "32",
        "value": "t_mapping(t_address,t_bool)"
      },
      "t_mapping(t_address,t_uint256)": {
        "encoding": "mapping",
        "key": "t_address",
        "label": "mapping(address => uint256)",
        "numberOfBytes": "32",
        "value": "t_uint256"
      },
      "t_mapping(t_uint256,t_address)": {
        "encoding": "mapping",
        "key": "t_uint256",
        "label": "mapping(uint256 => address)",
        "numberOfBytes": "32",
        "value": "t_address"
      },
      "t_string_storage": {
        "encoding": "bytes",
        "label": "string",
        "numberOfBytes": "32"
      },
      "t_uint256": {
        "encoding": "inplace",
        "label": "uint256",
        "numberOfBytes": "32"
      }
    }
  }
}