{
  "address": "0xDc64a140Aa3E981100a9becA4E685f962f0cF6C9",
  "abi": [
    {
      "inputs": [],
      "stateMutability": "nonpayable",
      "type": "constructor"
    },
    {
      "anonymous": false,
      "inputs": [
        {
          "indexed": true,
          "internalType": "address",
          "name": "owner",
          "type": "address"
        },
        {
          "indexed": true,
          "internalType": "address",
          "name": "spender",
          "type": "address"
        },
        {
          "indexed": false,
          "internalType": "uint256",
          "name": "value",
          "type": "uint256"
        }
      ],
      "name": "Approval",
      "type": "event"
    },
    {
      "anonymous": false,
      "inputs": [
        {
          "indexed": true,
          "internalType": "address",
          "name": "caller",
          "type": "address"
        },
        {
          "indexed": false,
          "internalType": "uint256",
          "name": "amount",
          "type": "uint256"
        }
      ],
      "name": "Deposit",
      "type": "event"
    },
    {
      "anonymous": false,
      "inputs": [
        {
          "indexed": true,
          "internalType": "address",
          "name": "from",
          "type": "address"
        },
        {
          "indexed": true,
          "internalType": "address",
          "name": "to",
          "type": "address"
        },
        {
          "indexed": false,
          "internalType": "uint256",
          "name": "value",
          "type": "uint256"
        }
      ],
      "name": "Transfer",
      "type": "event"
    },
    {
      "anonymous": false,
      "inputs": [
        {
          "indexed": true,
          "internalType": "address",
          "name": "caller",
          "type": "address"
        },
        {
          "indexed": false,
          "internalType": "uint256",
          "name": "amount",
          "type": "uint256"
        }
      ],
      "name": "WithDraw",
      "type": "event"
    },
    {
      "stateMutability": "payable",
      "type": "fallback"
    },
    {
      "inputs": [
        {
          "internalType": "address",
          "name": "owner",
          "type": "address"
        },
        {
          "internalType": "address",
          "name": "spender",
          "type": "address"
        }
      ],
      "name": "allowance",
      "outputs": [
        {
          "internalType": "uint256",
          "name": "",
          "type": "uint256"
        }
      ],
      "stateMutability": "view",
      "type": "function"
    },
    {
      "inputs": [
        {
          "internalType": "address",
          "name": "spender",
          "type": "address"
        },
        {
          "internalType": "uint256",
          "name": "amount",
          "type": "uint256"
        }
      ],
      "name": "approve",
      "outputs": [
        {
          "internalType": "bool",
          "name": "",
          "type": "bool"
        }
      ],
      "stateMutability": "nonpayable",
      "type": "function"
    },
    {
      "inputs": [
        {
          "internalType": "address",
          "name": "account",
          "type": "address"
        }
      ],
      "name": "balanceOf",
      "outputs": [
        {
          "internalType": "uint256",
          "name": "",
          "type": "uint256"
        }
      ],
      "stateMutability": "view",
      "type": "function"
    },
    {
      "inputs": [],
      "name": "decimals",
      "outputs": [
        {
          "internalType": "uint8",
          "name": "",
          "type": "uint8"
        }
      ],
      "stateMutability": "view",
      "type": "function"
    },
    {
      "inputs": [
        {
          "internalType": "address",
          "name": "spender",
          "type": "address"
        },
        {
          "internalType": "uint256",
          "name": "subtractedValue",
          "type": "uint256"
        }
      ],
      "name": "decreaseAllowance",
      "outputs": [
        {
          "internalType": "bool",
          "name": "",
          "type": "bool"
        }
      ],
      "stateMutability": "nonpayable",
      "type": "function"
    },
    {
      "inputs": [],
      "name": "deposit",
      "outputs": [],
      "stateMutability": "payable",
      "type": "function"
    },
    {
      "inputs": [
        {
          "internalType": "address",
          "name": "spender",
          "type": "address"
        },
        {
          "internalType": "uint256",
          "name": "addedValue",
          "type": "uint256"
        }
      ],
      "name": "increaseAllowance",
      "outputs": [
        {
          "internalType": "bool",
          "name": "",
          "type": "bool"
        }
      ],
      "stateMutability": "nonpayable",
      "type": "function"
    },
    {
      "inputs": [],
      "name": "name",
      "outputs": [
        {
          "internalType": "string",
          "name": "",
          "type": "string"
        }
      ],
      "stateMutability": "view",
      "type": "function"
    },
    {
      "inputs": [],
      "name": "symbol",
      "outputs": [
        {
          "internalType": "string",
          "name": "",
          "type": "string"
        }
      ],
      "stateMutability": "view",
      "type": "function"
    },
    {
      "inputs": [],
      "name": "totalSupply",
      "outputs": [
        {
          "internalType": "uint256",
          "name": "",
          "type": "uint256"
        }
      ],
      "stateMutability": "view",
      "type": "function"
    },
    {
      "inputs": [
        {
          "internalType": "address",
          "name": "to",
          "type": "address"
        },
        {
          "internalType": "uint256",
          "name": "amount",
          "type": "uint256"
        }
      ],
      "name": "transfer",
      "outputs": [
        {
          "internalType": "bool",
          "name": "",
          "type": "bool"
        }
      ],
      "stateMutability": "nonpayable",
      "type": "function"
    },
    {
      "inputs": [
        {
          "internalType": "address",
          "name": "from",
          "type": "address"
        },
        {
          "internalType": "address",
          "name": "to",
          "type": "address"
        },
        {
          "internalType": "uint256",
          "name": "amount",
          "type": "uint256"
        }
      ],
      "name": "transferFrom",
      "outputs": [
        {
          "internalType": "bool",
          "name": "",
          "type": "bool"
        }
      ],
      "stateMutability": "nonpayable",
      "type": "function"
    },
    {
      "inputs": [
        {
          "internalType": "uint256",
          "name": "_amount",
          "type": "uint256"
        }
      ],
      "name": "withDraw",
      "outputs": [],
      "stateMutability": "payable",
      "type": "function"
    },
    {
      "stateMutability": "payable",
      "type": "receive"
    }
  ],
  "transactionHash": "0xb8b2234b8b496a7c08a6afef7c52e49e4287c71b0bb5aeb49ce4fa29e52b94f4",
  "args": [],
  "numDeployments": 1,
  "solcInputHash": "be1a2de89c62b1b373f5e694112ab2d5",
  "bytecode": "0x608060405234801561001057600080fd5b506040518060400160405280600481526020017f57455448000000000000000000000000000000000000000000000000000000008152506040518060400160405280600481526020017f5745544800000000000000000000000000000000000000000000000000000000815250816003908161008c9190610472565b50806004908161009c9190610472565b5050506100b1336103e86100b660201b60201c565b61064e565b600073ffffffffffffffffffffffffffffffffffffffff168273ffffffffffffffffffffffffffffffffffffffff1603610125576040517f08c379a000000000000000000000000000000000000000000000000000000000815260040161011c906105a1565b60405180910390fd5b6101376000838361021860201b60201c565b806002600082825461014991906105f0565b92505081905550806000808473ffffffffffffffffffffffffffffffffffffffff1673ffffffffffffffffffffffffffffffffffffffff168152602001908152602001600020600082825401925050819055508173ffffffffffffffffffffffffffffffffffffffff16600073ffffffffffffffffffffffffffffffffffffffff167fddf252ad1be2c89b69c2b068fc378daa952ba7f163c4a11628f55a4df523b3ef836040516101fa9190610633565b60405180910390a36102146000838361021d60201b60201c565b5050565b505050565b505050565b600081519050919050565b7f4e487b7100000000000000000000000000000000000000000000000000000000600052604160045260246000fd5b7f4e487b7100000000000000000000000000000000000000000000000000000000600052602260045260246000fd5b600060028204905060018216806102a357607f821691505b6020821081036102b6576102b561025c565b5b50919050565b60008190508160005260206000209050919050565b60006020601f8301049050919050565b600082821b905092915050565b60006008830261031e7fffffffffffffffffffffffffffffffffffffffffffffffffffffffffffffffff826102e1565b61032886836102e1565b95508019841693508086168417925050509392505050565b6000819050919050565b6000819050919050565b600061036f61036a61036584610340565b61034a565b610340565b9050919050565b6000819050919050565b61038983610354565b61039d61039582610376565b8484546102ee565b825550505050565b600090565b6103b26103a5565b6103bd818484610380565b505050565b5b818110156103e1576103d66000826103aa565b6001810190506103c3565b5050565b601f821115610426576103f7816102bc565b610400846102d1565b8101602085101561040f578190505b61042361041b856102d1565b8301826103c2565b50505b505050565b600082821c905092915050565b60006104496000198460080261042b565b1980831691505092915050565b60006104628383610438565b9150826002028217905092915050565b61047b82610222565b67ffffffffffffffff8111156104945761049361022d565b5b61049e825461028b565b6104a98282856103e5565b600060209050601f8311600181146104dc57600084156104ca578287015190505b6104d48582610456565b86555061053c565b601f1984166104ea866102bc565b60005b82811015610512578489015182556001820191506020850194506020810190506104ed565b8683101561052f578489015161052b601f891682610438565b8355505b6001600288020188555050505b505050505050565b600082825260208201905092915050565b7f45524332303a206d696e7420746f20746865207a65726f206164647265737300600082015250565b600061058b601f83610544565b915061059682610555565b602082019050919050565b600060208201905081810360008301526105ba8161057e565b9050919050565b7f4e487b7100000000000000000000000000000000000000000000000000000000600052601160045260246000fd5b60006105fb82610340565b915061060683610340565b925082820190508082111561061e5761061d6105c1565b5b92915050565b61062d81610340565b82525050565b60006020820190506106486000830184610624565b92915050565b6119ed8061065d6000396000f3fe6080604052600436106100c65760003560e01c8063395093511161007f578063a457c2d711610059578063a457c2d714610327578063a9059cbb14610364578063d0e30db0146103a1578063dd62ed3e146103ab5761011b565b8063395093511461028257806370a08231146102bf57806395d89b41146102fc5761011b565b806306fdde031461016b578063095ea7b31461019657806314174f33146101d357806318160ddd146101ef57806323b872dd1461021a578063313ce567146102575761011b565b3661011b573373ffffffffffffffffffffffffffffffffffffffff167fe1fffcc4923d04b559f4d29a8bfc6cda04eb5b0d3c460751c2402c5c5cc9109c34604051610111919061102a565b60405180910390a2005b3373ffffffffffffffffffffffffffffffffffffffff167fe1fffcc4923d04b559f4d29a8bfc6cda04eb5b0d3c460751c2402c5c5cc9109c34604051610161919061102a565b60405180910390a2005b34801561017757600080fd5b506101806103e8565b60405161018d91906110d5565b60405180910390f35b3480156101a257600080fd5b506101bd60048036038101906101b89190611186565b61047a565b6040516101ca91906111e1565b60405180910390f35b6101ed60048036038101906101e891906111fc565b61049d565b005b3480156101fb57600080fd5b50610204610543565b604051610211919061102a565b60405180910390f35b34801561022657600080fd5b50610241600480360381019061023c9190611229565b61054d565b60405161024e91906111e1565b60405180910390f35b34801561026357600080fd5b5061026c61057c565b6040516102799190611298565b60405180910390f35b34801561028e57600080fd5b506102a960048036038101906102a49190611186565b610585565b6040516102b691906111e1565b60405180910390f35b3480156102cb57600080fd5b506102e660048036038101906102e191906112b3565b6105bc565b6040516102f3919061102a565b60405180910390f35b34801561030857600080fd5b50610311610604565b60405161031e91906110d5565b60405180910390f35b34801561033357600080fd5b5061034e60048036038101906103499190611186565b610696565b60405161035b91906111e1565b60405180910390f35b34801561037057600080fd5b5061038b60048036038101906103869190611186565b61070d565b60405161039891906111e1565b60405180910390f35b6103a9610730565b005b3480156103b757600080fd5b506103d260048036038101906103cd91906112e0565b61078a565b6040516103df919061102a565b60405180910390f35b6060600380546103f79061134f565b80601f01602080910402602001604051908101604052809291908181526020018280546104239061134f565b80156104705780601f1061044557610100808354040283529160200191610470565b820191906000526020600020905b81548152906001019060200180831161045357829003601f168201915b5050505050905090565b600080610485610811565b9050610492818585610819565b600191505092915050565b806104a7336105bc565b10156104e8576040517f08c379a00000000000000000000000000000000000000000000000000000000081526004016104df906113cc565b60405180910390fd5b6104f233826109e2565b3373ffffffffffffffffffffffffffffffffffffffff167f14b43ca4c63c5423006ad978eab8a14386476b52f1d4728070ea20a36f13e83b82604051610538919061102a565b60405180910390a250565b6000600254905090565b600080610558610811565b9050610565858285610baf565b610570858585610c3b565b60019150509392505050565b60006012905090565b600080610590610811565b90506105b18185856105a2858961078a565b6105ac919061141b565b610819565b600191505092915050565b60008060008373ffffffffffffffffffffffffffffffffffffffff1673ffffffffffffffffffffffffffffffffffffffff168152602001908152602001600020549050919050565b6060600480546106139061134f565b80601f016020809104026020016040519081016040528092919081815260200182805461063f9061134f565b801561068c5780601f106106615761010080835404028352916020019161068c565b820191906000526020600020905b81548152906001019060200180831161066f57829003601f168201915b5050505050905090565b6000806106a1610811565b905060006106af828661078a565b9050838110156106f4576040517f08c379a00000000000000000000000000000000000000000000000000000000081526004016106eb906114c1565b60405180910390fd5b6107018286868403610819565b60019250505092915050565b600080610718610811565b9050610725818585610c3b565b600191505092915050565b61073a3334610eb1565b3373ffffffffffffffffffffffffffffffffffffffff167fe1fffcc4923d04b559f4d29a8bfc6cda04eb5b0d3c460751c2402c5c5cc9109c34604051610780919061102a565b60405180910390a2565b6000600160008473ffffffffffffffffffffffffffffffffffffffff1673ffffffffffffffffffffffffffffffffffffffff16815260200190815260200160002060008373ffffffffffffffffffffffffffffffffffffffff1673ffffffffffffffffffffffffffffffffffffffff16815260200190815260200160002054905092915050565b600033905090565b600073ffffffffffffffffffffffffffffffffffffffff168373ffffffffffffffffffffffffffffffffffffffff1603610888576040517f08c379a000000000000000000000000000000000000000000000000000000000815260040161087f90611553565b60405180910390fd5b600073ffffffffffffffffffffffffffffffffffffffff168273ffffffffffffffffffffffffffffffffffffffff16036108f7576040517f08c379a00000000000000000000000000000000000000000000000000000000081526004016108ee906115e5565b60405180910390fd5b80600160008573ffffffffffffffffffffffffffffffffffffffff1673ffffffffffffffffffffffffffffffffffffffff16815260200190815260200160002060008473ffffffffffffffffffffffffffffffffffffffff1673ffffffffffffffffffffffffffffffffffffffff168152602001908152602001600020819055508173ffffffffffffffffffffffffffffffffffffffff168373ffffffffffffffffffffffffffffffffffffffff167f8c5be1e5ebec7d5bd14f71427d1e84f3dd0314c0f7b2291e5b200ac8c7c3b925836040516109d5919061102a565b60405180910390a3505050565b600073ffffffffffffffffffffffffffffffffffffffff168273ffffffffffffffffffffffffffffffffffffffff1603610a51576040517f08c379a0000000000000000000000000000000000000000000000000000000008152600401610a4890611677565b60405180910390fd5b610a5d82600083611007565b60008060008473ffffffffffffffffffffffffffffffffffffffff1673ffffffffffffffffffffffffffffffffffffffff16815260200190815260200160002054905081811015610ae3576040517f08c379a0000000000000000000000000000000000000000000000000000000008152600401610ada90611709565b60405180910390fd5b8181036000808573ffffffffffffffffffffffffffffffffffffffff1673ffffffffffffffffffffffffffffffffffffffff1681526020019081526020016000208190555081600260008282540392505081905550600073ffffffffffffffffffffffffffffffffffffffff168373ffffffffffffffffffffffffffffffffffffffff167fddf252ad1be2c89b69c2b068fc378daa952ba7f163c4a11628f55a4df523b3ef84604051610b96919061102a565b60405180910390a3610baa8360008461100c565b505050565b6000610bbb848461078a565b90507fffffffffffffffffffffffffffffffffffffffffffffffffffffffffffffffff8114610c355781811015610c27576040517f08c379a0000000000000000000000000000000000000000000000000000000008152600401610c1e90611775565b60405180910390fd5b610c348484848403610819565b5b50505050565b600073ffffffffffffffffffffffffffffffffffffffff168373ffffffffffffffffffffffffffffffffffffffff1603610caa576040517f08c379a0000000000000000000000000000000000000000000000000000000008152600401610ca190611807565b60405180910390fd5b600073ffffffffffffffffffffffffffffffffffffffff168273ffffffffffffffffffffffffffffffffffffffff1603610d19576040517f08c379a0000000000000000000000000000000000000000000000000000000008152600401610d1090611899565b60405180910390fd5b610d24838383611007565b60008060008573ffffffffffffffffffffffffffffffffffffffff1673ffffffffffffffffffffffffffffffffffffffff16815260200190815260200160002054905081811015610daa576040517f08c379a0000000000000000000000000000000000000000000000000000000008152600401610da19061192b565b60405180910390fd5b8181036000808673ffffffffffffffffffffffffffffffffffffffff1673ffffffffffffffffffffffffffffffffffffffff16815260200190815260200160002081905550816000808573ffffffffffffffffffffffffffffffffffffffff1673ffffffffffffffffffffffffffffffffffffffff168152602001908152602001600020600082825401925050819055508273ffffffffffffffffffffffffffffffffffffffff168473ffffffffffffffffffffffffffffffffffffffff167fddf252ad1be2c89b69c2b068fc378daa952ba7f163c4a11628f55a4df523b3ef84604051610e98919061102a565b60405180910390a3610eab84848461100c565b50505050565b600073ffffffffffffffffffffffffffffffffffffffff168273ffffffffffffffffffffffffffffffffffffffff1603610f20576040517f08c379a0000000000000000000000000000000000000000000000000000000008152600401610f1790611997565b60405180910390fd5b610f2c60008383611007565b8060026000828254610f3e919061141b565b92505081905550806000808473ffffffffffffffffffffffffffffffffffffffff1673ffffffffffffffffffffffffffffffffffffffff168152602001908152602001600020600082825401925050819055508173ffffffffffffffffffffffffffffffffffffffff16600073ffffffffffffffffffffffffffffffffffffffff167fddf252ad1be2c89b69c2b068fc378daa952ba7f163c4a11628f55a4df523b3ef83604051610fef919061102a565b60405180910390a36110036000838361100c565b5050565b505050565b505050565b6000819050919050565b61102481611011565b82525050565b600060208201905061103f600083018461101b565b92915050565b600081519050919050565b600082825260208201905092915050565b60005b8381101561107f578082015181840152602081019050611064565b60008484015250505050565b6000601f19601f8301169050919050565b60006110a782611045565b6110b18185611050565b93506110c1818560208601611061565b6110ca8161108b565b840191505092915050565b600060208201905081810360008301526110ef818461109c565b905092915050565b600080fd5b600073ffffffffffffffffffffffffffffffffffffffff82169050919050565b6000611127826110fc565b9050919050565b6111378161111c565b811461114257600080fd5b50565b6000813590506111548161112e565b92915050565b61116381611011565b811461116e57600080fd5b50565b6000813590506111808161115a565b92915050565b6000806040838503121561119d5761119c6110f7565b5b60006111ab85828601611145565b92505060206111bc85828601611171565b9150509250929050565b60008115159050919050565b6111db816111c6565b82525050565b60006020820190506111f660008301846111d2565b92915050565b600060208284031215611212576112116110f7565b5b600061122084828501611171565b91505092915050565b600080600060608486031215611242576112416110f7565b5b600061125086828701611145565b935050602061126186828701611145565b925050604061127286828701611171565b9150509250925092565b600060ff82169050919050565b6112928161127c565b82525050565b60006020820190506112ad6000830184611289565b92915050565b6000602082840312156112c9576112c86110f7565b5b60006112d784828501611145565b91505092915050565b600080604083850312156112f7576112f66110f7565b5b600061130585828601611145565b925050602061131685828601611145565b9150509250929050565b7f4e487b7100000000000000000000000000000000000000000000000000000000600052602260045260246000fd5b6000600282049050600182168061136757607f821691505b60208210810361137a57611379611320565b5b50919050565b7f696e73756666696369656e742062616c616e6365000000000000000000000000600082015250565b60006113b6601483611050565b91506113c182611380565b602082019050919050565b600060208201905081810360008301526113e5816113a9565b9050919050565b7f4e487b7100000000000000000000000000000000000000000000000000000000600052601160045260246000fd5b600061142682611011565b915061143183611011565b9250828201905080821115611449576114486113ec565b5b92915050565b7f45524332303a2064656372656173656420616c6c6f77616e63652062656c6f7760008201527f207a65726f000000000000000000000000000000000000000000000000000000602082015250565b60006114ab602583611050565b91506114b68261144f565b604082019050919050565b600060208201905081810360008301526114da8161149e565b9050919050565b7f45524332303a20617070726f76652066726f6d20746865207a65726f2061646460008201527f7265737300000000000000000000000000000000000000000000000000000000602082015250565b600061153d602483611050565b9150611548826114e1565b604082019050919050565b6000602082019050818103600083015261156c81611530565b9050919050565b7f45524332303a20617070726f766520746f20746865207a65726f20616464726560008201527f7373000000000000000000000000000000000000000000000000000000000000602082015250565b60006115cf602283611050565b91506115da82611573565b604082019050919050565b600060208201905081810360008301526115fe816115c2565b9050919050565b7f45524332303a206275726e2066726f6d20746865207a65726f2061646472657360008201527f7300000000000000000000000000000000000000000000000000000000000000602082015250565b6000611661602183611050565b915061166c82611605565b604082019050919050565b6000602082019050818103600083015261169081611654565b9050919050565b7f45524332303a206275726e20616d6f756e7420657863656564732062616c616e60008201527f6365000000000000000000000000000000000000000000000000000000000000602082015250565b60006116f3602283611050565b91506116fe82611697565b604082019050919050565b60006020820190508181036000830152611722816116e6565b9050919050565b7f45524332303a20696e73756666696369656e7420616c6c6f77616e6365000000600082015250565b600061175f601d83611050565b915061176a82611729565b602082019050919050565b6000602082019050818103600083015261178e81611752565b9050919050565b7f45524332303a207472616e736665722066726f6d20746865207a65726f20616460008201527f6472657373000000000000000000000000000000000000000000000000000000602082015250565b60006117f1602583611050565b91506117fc82611795565b604082019050919050565b60006020820190508181036000830152611820816117e4565b9050919050565b7f45524332303a207472616e7366657220746f20746865207a65726f206164647260008201527f6573730000000000000000000000000000000000000000000000000000000000602082015250565b6000611883602383611050565b915061188e82611827565b604082019050919050565b600060208201905081810360008301526118b281611876565b9050919050565b7f45524332303a207472616e7366657220616d6f756e742065786365656473206260008201527f616c616e63650000000000000000000000000000000000000000000000000000602082015250565b6000611915602683611050565b9150611920826118b9565b604082019050919050565b6000602082019050818103600083015261194481611908565b9050919050565b7f45524332303a206d696e7420746f20746865207a65726f206164647265737300600082015250565b6000611981601f83611050565b915061198c8261194b565b602082019050919050565b600060208201905081810360008301526119b081611974565b905091905056fea26469706673582212208fe50afc7a3b597c75c5a187025ea673048a17ef0d1cbaf4aa0fa6bdadf9e64964736f6c634300081c0033",
  "devdoc": {
    "events": {
      "Approval(address,address,uint256)": {
        "details": "Emitted when the allowance of a `spender` for an `owner` is set by a call to {approve}. `value` is the new allowance."
      },
      "Transfer(address,address,uint256)": {
        "details": "Emitted when `value` tokens are moved from one account (`from`) to another (`to`). Note that `value` may be zero."
      }
    },
    "kind": "dev",
    "methods": {
      "allowance(address,address)": {
        "details": "See {IERC20-allowance}."
      },
      "approve(address,uint256)": {
        "details": "See {IERC20-approve}. NOTE: If `amount` is the maximum `uint256`, the allowance is not updated on `transferFrom`. This is semantically equivalent to an infinite approval. Requirements: - `spender` cannot be the zero address."
      },
      "balanceOf(address)": {
        "details": "See {IERC20-balanceOf}."
      },
      "decimals()": {
        "details": "Returns the number of decimals used to get its user representation. For example, if `decimals` equals `2`, a balance of `505` tokens should be displayed to a user as `5.05` (`505 / 10 ** 2`). Tokens usually opt for a value of 18, imitating the relationship between Ether and Wei. This is the default value returned by this function, unless it's overridden. NOTE: This information is only used for _display_ purposes: it in no way affects any of the arithmetic of the contract, including {IERC20-balanceOf} and {IERC20-transfer}."
      },
      "decreaseAllowance(address,uint256)": {
        "details": "Atomically decreases the allowance granted to `spender` by the caller. This is an alternative to {approve} that can be used as a mitigation for problems described in {IERC20-approve}. Emits an {Approval} event indicating the updated allowance. Requirements: - `spender` cannot be the zero address. - `spender` must have allowance for the caller of at least `subtractedValue`."
      },
      "increaseAllowance(address,uint256)": {
        "details": "Atomically increases the allowance granted to `spender` by the caller. This is an alternative to {approve} that can be used as a mitigation for problems described in {IERC20-approve}. Emits an {Approval} event indicating the updated allowance. Requirements: - `spender` cannot be the zero address."
      },
      "name()": {
        "details": "Returns the name of the token."
      },
      "symbol()": {
        "details": "Returns the symbol of the token, usually a shorter version of the name."
      },
      "totalSupply()": {
        "details": "See {IERC20-totalSupply}."
      },
      "transfer(address,uint256)": {
        "details": "See {IERC20-transfer}. Requirements: - `to` cannot be the zero address. - the caller must have a balance of at least `amount`."
      },
      "transferFrom(address,address,uint256)": {
        "details": "See {IERC20-transferFrom}. Emits an {Approval} event indicating the updated allowance. This is not required by the EIP. See the note at the beginning of {ERC20}. NOTE: Does not update the allowance if the current allowance is the maximum `uint256`. Requirements: - `from` and `to` cannot be the zero address. - `from` must have a balance of at least `amount`. - the caller must have allowance for ``from``'s tokens of at least `amount`."
      }
    },
    "version": 1
  },
  "userdoc": {
    "kind": "user",
    "methods": {},
    "version": 1
  },
  "storageLayout": {
    "storage": [
      {
        "astId": 15,
        "contract": "contracts/WETH.sol:WETH",
        "label": "_balances",
        "offset": 0,
        "slot": "0",
        "type": "t_mapping(t_address,t_uint256)"
      },
      {
        "astId": 21,
        "contract": "contracts/WETH.sol:WETH",
        "label": "_allowances",
        "offset": 0,
        "slot": "1",
        "type": "t_mapping(t_address,t_mapping(t_address,t_uint256))"
      },
      {
        "astId": 23,
        "contract": "contracts/WETH.sol:WETH",
        "label": "_totalSupply",
        "offset": 0,
        "slot": "2",
        "type": "t_uint256"
      },
      {
        "astId": 25,
        "contract": "contracts/WETH.sol:WETH",
        "label": "_name",
        "offset": 0,
        "slot": "3",
        "type": "t_string_storage"
      },
      {
        "astId": 27,
        "contract": "contracts/WETH.sol:WETH",
        "label": "_symbol",
        "offset": 0,
        "slot": "4",
        "type": "t_string_storage"
      }
    ],
    "types": {
      "t_address": {
        "encoding": "inplace",
        "label": "address",
        "numberOfBytes": "20"
      },
      "t_mapping(t_address,t_mapping(t_address,t_uint256))": {
        "encoding": "mapping",
        "key": "t_address",
        "label": "mapping(address => mapping(address => uint256))",
        "numberOfBytes": "32",
        "value": "t_mapping(t_address,t_uint256)"
      },
      "t_mapping(t_address,t_uint256)": {
        "encoding": "mapping",
        "key": "t_address",
        "label": "mapping(address => uint256)",
        "numberOfBytes": "32",
        "value": "t_uint256"
      },
      "t_string_storage": {
        "encoding": "bytes",
        "label": "string",
        "numberOfBytes": "32"
      },
      "t_uint256": {
        "encoding": "inplace",
        "label": "uint256",
        "numberOfBytes": "32"
      }
    }
  }
}